{
    "contractName": "NFTMarketplace",
    "abi": [
        {
            "anonymous": false,
            "inputs": [
                {
                    "indexed": true,
                    "internalType": "address",
                    "name": "owner",
                    "type": "address"
                },
                {
                    "indexed": true,
                    "internalType": "address",
                    "name": "approved",
                    "type": "address"
                },
                {
                    "indexed": true,
                    "internalType": "uint256",
                    "name": "tokenId",
                    "type": "uint256"
                }
            ],
            "name": "Approval",
            "type": "event"
        },
        {
            "anonymous": false,
            "inputs": [
                {
                    "indexed": true,
                    "internalType": "address",
                    "name": "owner",
                    "type": "address"
                },
                {
                    "indexed": true,
                    "internalType": "address",
                    "name": "operator",
                    "type": "address"
                },
                {
                    "indexed": false,
                    "internalType": "bool",
                    "name": "approved",
                    "type": "bool"
                }
            ],
            "name": "ApprovalForAll",
            "type": "event"
        },
        {
            "anonymous": false,
            "inputs": [
                {
                    "indexed": true,
                    "internalType": "address",
                    "name": "previousOwner",
                    "type": "address"
                },
                {
                    "indexed": true,
                    "internalType": "address",
                    "name": "newOwner",
                    "type": "address"
                }
            ],
            "name": "OwnershipTransferred",
            "type": "event"
        },
        {
            "anonymous": false,
            "inputs": [
                {
                    "components": [
                        {
                            "internalType": "uint256",
                            "name": "id",
                            "type": "uint256"
                        },
                        {
                            "internalType": "uint256",
                            "name": "price",
                            "type": "uint256"
                        },
                        {
                            "internalType": "string",
                            "name": "name",
                            "type": "string"
                        },
                        {
                            "internalType": "string",
                            "name": "uri",
                            "type": "string"
                        },
                        {
                            "internalType": "bool",
                            "name": "directSale",
                            "type": "bool"
                        },
                        {
                            "internalType": "bool",
                            "name": "bidSale",
                            "type": "bool"
                        },
                        {
                            "internalType": "bool",
                            "name": "status",
                            "type": "bool"
                        },
                        {
                            "internalType": "address",
                            "name": "mintedBy",
                            "type": "address"
                        },
                        {
                            "internalType": "address",
                            "name": "currentOwner",
                            "type": "address"
                        },
                        {
                            "internalType": "address",
                            "name": "previousOwner",
                            "type": "address"
                        },
                        {
                            "internalType": "uint256",
                            "name": "numberOfTransfers",
                            "type": "uint256"
                        }
                    ],
                    "indexed": false,
                    "internalType": "struct NFTV1Storage.TokenMeta",
                    "name": "data",
                    "type": "tuple"
                },
                {
                    "indexed": false,
                    "internalType": "uint256",
                    "name": "id",
                    "type": "uint256"
                }
            ],
            "name": "TokenMetaReturn",
            "type": "event"
        },
        {
            "anonymous": false,
            "inputs": [
                {
                    "indexed": true,
                    "internalType": "address",
                    "name": "from",
                    "type": "address"
                },
                {
                    "indexed": true,
                    "internalType": "address",
                    "name": "to",
                    "type": "address"
                },
                {
                    "indexed": true,
                    "internalType": "uint256",
                    "name": "tokenId",
                    "type": "uint256"
                }
            ],
            "name": "Transfer",
            "type": "event"
        },
        {
            "inputs": [
                {
                    "internalType": "uint256",
                    "name": "",
                    "type": "uint256"
                },
                {
                    "internalType": "uint256",
                    "name": "",
                    "type": "uint256"
                }
            ],
            "name": "Bids",
            "outputs": [
                {
                    "internalType": "uint256",
                    "name": "tokenId",
                    "type": "uint256"
                },
                {
                    "internalType": "address",
                    "name": "sellerAddress",
                    "type": "address"
                },
                {
                    "internalType": "address",
                    "name": "buyerAddress",
                    "type": "address"
                },
                {
                    "internalType": "uint256",
                    "name": "price",
                    "type": "uint256"
                },
                {
                    "internalType": "bool",
                    "name": "withdrawn",
                    "type": "bool"
                },
                {
                    "internalType": "uint256",
                    "name": "transferCount",
                    "type": "uint256"
                }
            ],
            "stateMutability": "view",
            "type": "function"
        },
        {
            "inputs": [
                {
                    "internalType": "uint256",
                    "name": "_tokenId",
                    "type": "uint256"
                }
            ],
            "name": "BuyNFT",
            "outputs": [],
            "stateMutability": "payable",
            "type": "function"
        },
        {
            "inputs": [],
            "name": "NFTImplementation",
            "outputs": [
                {
                    "internalType": "address",
                    "name": "",
                    "type": "address"
                }
            ],
            "stateMutability": "view",
            "type": "function"
        },
        {
            "inputs": [
                {
                    "internalType": "uint256",
                    "name": "_tokenId",
                    "type": "uint256"
                },
                {
                    "internalType": "uint256",
                    "name": "_price",
                    "type": "uint256"
                }
            ],
            "name": "SellNFT",
            "outputs": [],
            "stateMutability": "nonpayable",
            "type": "function"
        },
        {
            "inputs": [],
            "name": "_tokenIds",
            "outputs": [
                {
                    "internalType": "uint256",
                    "name": "",
                    "type": "uint256"
                }
            ],
            "stateMutability": "view",
            "type": "function"
        },
        {
            "inputs": [
                {
                    "internalType": "uint256",
                    "name": "",
                    "type": "uint256"
                }
            ],
            "name": "_tokenMeta",
            "outputs": [
                {
                    "internalType": "uint256",
                    "name": "id",
                    "type": "uint256"
                },
                {
                    "internalType": "uint256",
                    "name": "price",
                    "type": "uint256"
                },
                {
                    "internalType": "string",
                    "name": "name",
                    "type": "string"
                },
                {
                    "internalType": "string",
                    "name": "uri",
                    "type": "string"
                },
                {
                    "internalType": "bool",
                    "name": "directSale",
                    "type": "bool"
                },
                {
                    "internalType": "bool",
                    "name": "bidSale",
                    "type": "bool"
                },
                {
                    "internalType": "bool",
                    "name": "status",
                    "type": "bool"
                },
                {
                    "internalType": "address",
                    "name": "mintedBy",
                    "type": "address"
                },
                {
                    "internalType": "address",
                    "name": "currentOwner",
                    "type": "address"
                },
                {
                    "internalType": "address",
                    "name": "previousOwner",
                    "type": "address"
                },
                {
                    "internalType": "uint256",
                    "name": "numberOfTransfers",
                    "type": "uint256"
                }
            ],
            "stateMutability": "view",
            "type": "function"
        },
        {
            "inputs": [],
            "name": "admin",
            "outputs": [
                {
                    "internalType": "address",
                    "name": "",
                    "type": "address"
                }
            ],
            "stateMutability": "view",
            "type": "function"
        },
        {
            "inputs": [
                {
                    "internalType": "address",
                    "name": "to",
                    "type": "address"
                },
                {
                    "internalType": "uint256",
                    "name": "tokenId",
                    "type": "uint256"
                }
            ],
            "name": "approve",
            "outputs": [],
            "stateMutability": "nonpayable",
            "type": "function"
        },
        {
            "inputs": [
                {
                    "internalType": "address",
                    "name": "owner",
                    "type": "address"
                }
            ],
            "name": "balanceOf",
            "outputs": [
                {
                    "internalType": "uint256",
                    "name": "",
                    "type": "uint256"
                }
            ],
            "stateMutability": "view",
            "type": "function"
        },
        {
            "inputs": [
                {
                    "internalType": "uint256",
                    "name": "_tokenId",
                    "type": "uint256"
                }
            ],
            "name": "fetchNft",
            "outputs": [
                {
                    "components": [
                        {
                            "internalType": "uint256",
                            "name": "id",
                            "type": "uint256"
                        },
                        {
                            "internalType": "uint256",
                            "name": "price",
                            "type": "uint256"
                        },
                        {
                            "internalType": "string",
                            "name": "name",
                            "type": "string"
                        },
                        {
                            "internalType": "string",
                            "name": "uri",
                            "type": "string"
                        },
                        {
                            "internalType": "bool",
                            "name": "directSale",
                            "type": "bool"
                        },
                        {
                            "internalType": "bool",
                            "name": "bidSale",
                            "type": "bool"
                        },
                        {
                            "internalType": "bool",
                            "name": "status",
                            "type": "bool"
                        },
                        {
                            "internalType": "address",
                            "name": "mintedBy",
                            "type": "address"
                        },
                        {
                            "internalType": "address",
                            "name": "currentOwner",
                            "type": "address"
                        },
                        {
                            "internalType": "address",
                            "name": "previousOwner",
                            "type": "address"
                        },
                        {
                            "internalType": "uint256",
                            "name": "numberOfTransfers",
                            "type": "uint256"
                        }
                    ],
                    "internalType": "struct NFTV1Storage.TokenMeta",
                    "name": "",
                    "type": "tuple"
                }
            ],
            "stateMutability": "view",
            "type": "function"
        },
        {
            "inputs": [
                {
                    "internalType": "uint256",
                    "name": "tokenId",
                    "type": "uint256"
                }
            ],
            "name": "getApproved",
            "outputs": [
                {
                    "internalType": "address",
                    "name": "",
                    "type": "address"
                }
            ],
            "stateMutability": "view",
            "type": "function"
        },
        {
            "inputs": [],
            "name": "getContractBalance",
            "outputs": [
                {
                    "internalType": "uint256",
                    "name": "",
                    "type": "uint256"
                }
            ],
            "stateMutability": "view",
            "type": "function"
        },
        {
            "inputs": [],
            "name": "initialize",
            "outputs": [],
            "stateMutability": "nonpayable",
            "type": "function"
        },
        {
            "inputs": [
                {
                    "internalType": "address",
                    "name": "owner",
                    "type": "address"
                },
                {
                    "internalType": "address",
                    "name": "operator",
                    "type": "address"
                }
            ],
            "name": "isApprovedForAll",
            "outputs": [
                {
                    "internalType": "bool",
                    "name": "",
                    "type": "bool"
                }
            ],
            "stateMutability": "view",
            "type": "function"
        },
        {
            "inputs": [
                {
                    "internalType": "string",
                    "name": "_tokenURI",
                    "type": "string"
                },
                {
                    "internalType": "string",
                    "name": "_name",
                    "type": "string"
                },
                {
                    "internalType": "uint256",
                    "name": "_price",
                    "type": "uint256"
                }
            ],
            "name": "mintNFT",
            "outputs": [
                {
                    "internalType": "uint256",
                    "name": "",
                    "type": "uint256"
                }
            ],
            "stateMutability": "nonpayable",
            "type": "function"
        },
        {
            "inputs": [],
            "name": "name",
            "outputs": [
                {
                    "internalType": "string",
                    "name": "",
                    "type": "string"
                }
            ],
            "stateMutability": "view",
            "type": "function"
        },
        {
            "inputs": [],
            "name": "owner",
            "outputs": [
                {
                    "internalType": "address",
                    "name": "",
                    "type": "address"
                }
            ],
            "stateMutability": "view",
            "type": "function"
        },
        {
            "inputs": [
                {
                    "internalType": "uint256",
                    "name": "tokenId",
                    "type": "uint256"
                }
            ],
            "name": "ownerOf",
            "outputs": [
                {
                    "internalType": "address",
                    "name": "",
                    "type": "address"
                }
            ],
            "stateMutability": "view",
            "type": "function"
        },
        {
            "inputs": [],
            "name": "pendingAdmin",
            "outputs": [
                {
                    "internalType": "address",
                    "name": "",
                    "type": "address"
                }
            ],
            "stateMutability": "view",
            "type": "function"
        },
        {
            "inputs": [],
            "name": "pendingNFTImplementation",
            "outputs": [
                {
                    "internalType": "address",
                    "name": "",
                    "type": "address"
                }
            ],
            "stateMutability": "view",
            "type": "function"
        },
        {
            "inputs": [],
            "name": "renounceOwnership",
            "outputs": [],
            "stateMutability": "nonpayable",
            "type": "function"
        },
        {
            "inputs": [
                {
                    "internalType": "address",
                    "name": "from",
                    "type": "address"
                },
                {
                    "internalType": "address",
                    "name": "to",
                    "type": "address"
                },
                {
                    "internalType": "uint256",
                    "name": "tokenId",
                    "type": "uint256"
                }
            ],
            "name": "safeTransferFrom",
            "outputs": [],
            "stateMutability": "nonpayable",
            "type": "function"
        },
        {
            "inputs": [
                {
                    "internalType": "address",
                    "name": "from",
                    "type": "address"
                },
                {
                    "internalType": "address",
                    "name": "to",
                    "type": "address"
                },
                {
                    "internalType": "uint256",
                    "name": "tokenId",
                    "type": "uint256"
                },
                {
                    "internalType": "bytes",
                    "name": "_data",
                    "type": "bytes"
                }
            ],
            "name": "safeTransferFrom",
            "outputs": [],
            "stateMutability": "nonpayable",
            "type": "function"
        },
        {
            "inputs": [
                {
                    "internalType": "address",
                    "name": "operator",
                    "type": "address"
                },
                {
                    "internalType": "bool",
                    "name": "approved",
                    "type": "bool"
                }
            ],
            "name": "setApprovalForAll",
            "outputs": [],
            "stateMutability": "nonpayable",
            "type": "function"
        },
        {
            "inputs": [
                {
                    "internalType": "bytes4",
                    "name": "interfaceId",
                    "type": "bytes4"
                }
            ],
            "name": "supportsInterface",
            "outputs": [
                {
                    "internalType": "bool",
                    "name": "",
                    "type": "bool"
                }
            ],
            "stateMutability": "view",
            "type": "function"
        },
        {
            "inputs": [],
            "name": "symbol",
            "outputs": [
                {
                    "internalType": "string",
                    "name": "",
                    "type": "string"
                }
            ],
            "stateMutability": "view",
            "type": "function"
        },
        {
            "inputs": [
                {
                    "internalType": "uint256",
                    "name": "tokenId",
                    "type": "uint256"
                }
            ],
            "name": "tokenURI",
            "outputs": [
                {
                    "internalType": "string",
                    "name": "",
                    "type": "string"
                }
            ],
            "stateMutability": "view",
            "type": "function"
        },
        {
            "inputs": [
                {
                    "internalType": "address",
                    "name": "from",
                    "type": "address"
                },
                {
                    "internalType": "address",
                    "name": "to",
                    "type": "address"
                },
                {
                    "internalType": "uint256",
                    "name": "tokenId",
                    "type": "uint256"
                }
            ],
            "name": "transferFrom",
            "outputs": [],
            "stateMutability": "nonpayable",
            "type": "function"
        },
        {
            "inputs": [
                {
                    "internalType": "address",
                    "name": "newOwner",
                    "type": "address"
                }
            ],
            "name": "transferOwnership",
            "outputs": [],
            "stateMutability": "nonpayable",
            "type": "function"
        }
    ],
    "bytecode": "608060405234801561001057600080fd5b50612ae7806100206000396000f3fe6080604052600436106101c15760003560e01c80638da5cb5b116100f7578063a7f323da11610095578063e43f049011610064578063e43f049014610530578063e985e9c51461055d578063f2fde38b146105a6578063f851a440146105c657600080fd5b8063a7f323da1461047f578063aa46a400146104da578063b88d4fde146104f0578063c87b56dd1461051057600080fd5b806398062bbf116100d157806398062bbf1461040c578063a22cb4651461042c578063a37365e01461044c578063a632f8001461045f57600080fd5b80638da5cb5b146103a25780638e57ff16146103c057806395d89b41146103f757600080fd5b806342842e0e116101645780636f9fb98a1161013e5780636f9fb98a1461034557806370a0823114610358578063715018a6146103785780638129fc1c1461038d57600080fd5b806342842e0e146102d75780636352211e146102f757806364b309071461031757600080fd5b8063081812fc116101a0578063081812fc14610255578063095ea7b31461027557806323b872dd1461029757806326782247146102b757600080fd5b8062d96d02146101c657806301ffc9a71461020357806306fdde0314610233575b600080fd5b3480156101d257600080fd5b506002546101e6906001600160a01b031681565b6040516001600160a01b0390911681526020015b60405180910390f35b34801561020f57600080fd5b5061022361021e36600461235a565b6105e6565b60405190151581526020016101fa565b34801561023f57600080fd5b50610248610638565b6040516101fa91906123cf565b34801561026157600080fd5b506101e66102703660046123e2565b6106ca565b34801561028157600080fd5b50610295610290366004612417565b610764565b005b3480156102a357600080fd5b506102956102b2366004612441565b61087a565b3480156102c357600080fd5b506001546101e6906001600160a01b031681565b3480156102e357600080fd5b506102956102f2366004612441565b6108ab565b34801561030357600080fd5b506101e66103123660046123e2565b6108c6565b34801561032357600080fd5b50610337610332366004612529565b61093d565b6040519081526020016101fa565b34801561035157600080fd5b5047610337565b34801561036457600080fd5b50610337610373366004612596565b610b43565b34801561038457600080fd5b50610295610bca565b34801561039957600080fd5b50610295610c30565b3480156103ae57600080fd5b50609f546001600160a01b03166101e6565b3480156103cc57600080fd5b506103e06103db3660046123e2565b610cfb565b6040516101fa9b9a999897969594939291906125b1565b34801561040357600080fd5b50610248610e79565b34801561041857600080fd5b506003546101e6906001600160a01b031681565b34801561043857600080fd5b5061029561044736600461262e565b610e88565b61029561045a3660046123e2565b610e97565b34801561046b57600080fd5b5061029561047a36600461266a565b6112f6565b34801561048b57600080fd5b5061049f61049a36600461266a565b611369565b604080519687526001600160a01b039586166020880152939094169285019290925260608401521515608083015260a082015260c0016101fa565b3480156104e657600080fd5b5061033760055481565b3480156104fc57600080fd5b5061029561050b36600461268c565b6113cf565b34801561051c57600080fd5b5061024861052b3660046123e2565b611407565b34801561053c57600080fd5b5061055061054b3660046123e2565b6114ef565b6040516101fa91906127e0565b34801561056957600080fd5b506102236105783660046127f3565b6001600160a01b03918216600090815260726020908152604080832093909416825291909152205460ff1690565b3480156105b257600080fd5b506102956105c1366004612596565b611730565b3480156105d257600080fd5b506000546101e6906001600160a01b031681565b60006001600160e01b031982166380ac58cd60e01b148061061757506001600160e01b03198216635b5e139f60e01b145b8061063257506301ffc9a760e01b6001600160e01b03198316145b92915050565b6060606d805461064790612826565b80601f016020809104026020016040519081016040528092919081815260200182805461067390612826565b80156106c05780601f10610695576101008083540402835291602001916106c0565b820191906000526020600020905b8154815290600101906020018083116106a357829003601f168201915b5050505050905090565b6000818152606f60205260408120546001600160a01b03166107485760405162461bcd60e51b815260206004820152602c60248201527f4552433732313a20617070726f76656420717565727920666f72206e6f6e657860448201526b34b9ba32b73a103a37b5b2b760a11b60648201526084015b60405180910390fd5b506000908152607160205260409020546001600160a01b031690565b600061076f826108c6565b9050806001600160a01b0316836001600160a01b031614156107dd5760405162461bcd60e51b815260206004820152602160248201527f4552433732313a20617070726f76616c20746f2063757272656e74206f776e656044820152603960f91b606482015260840161073f565b336001600160a01b03821614806107f957506107f98133610578565b61086b5760405162461bcd60e51b815260206004820152603860248201527f4552433732313a20617070726f76652063616c6c6572206973206e6f74206f7760448201527f6e6572206e6f7220617070726f76656420666f7220616c6c0000000000000000606482015260840161073f565b61087583836117f8565b505050565b6108843382611866565b6108a05760405162461bcd60e51b815260040161073f90612861565b61087583838361195d565b610875838383604051806020016040528060008152506113cf565b6000818152606f60205260408120546001600160a01b0316806106325760405162461bcd60e51b815260206004820152602960248201527f4552433732313a206f776e657220717565727920666f72206e6f6e657869737460448201526832b73a103a37b5b2b760b91b606482015260840161073f565b600080821161094b57600080fd5b60016005600082825461095e91906128c8565b9250508190555061097133600554611afd565b600060405180610160016040528060055481526020018481526020018581526020018681526020016001151581526020016000151581526020016000151581526020016109bb3390565b6001600160a01b03168152602001336001600160a01b03168152602001336001600160a01b03168152600060209182018190526005548152600482526040908190208351815583830151600182015590830151805193945084939192610a29926002850192909101906122ab565b5060608201518051610a459160038401916020909101906122ab565b50608082015160048201805460a085015160c086015160e087015161ffff1990931694151561ff0019169490941761010091151582021762010000600160b81b03191662010000941515949094026301000000600160b81b0319169390931763010000006001600160a01b03928316021790915590830151600580840180546001600160a01b0319908116938516939093179055610120850151600685018054909316931692909217905561014090920151600790910155546040517f17090f1d29fb53f3f90f89a39c156a726f7b1d567ea849d1b2cc3a2d415445e891610b2f918491906128e0565b60405180910390a150506005549392505050565b60006001600160a01b038216610bae5760405162461bcd60e51b815260206004820152602a60248201527f4552433732313a2062616c616e636520717565727920666f7220746865207a65604482015269726f206164647265737360b01b606482015260840161073f565b506001600160a01b031660009081526070602052604090205490565b609f546001600160a01b03163314610c245760405162461bcd60e51b815260206004820181905260248201527f4f776e61626c653a2063616c6c6572206973206e6f7420746865206f776e6572604482015260640161073f565b610c2e6000611c3f565b565b600854610100900460ff1680610c49575060085460ff16155b610c655760405162461bcd60e51b815260040161073f90612902565b600854610100900460ff16158015610c87576008805461ffff19166101011790555b610c8f611c91565b610c97611cf8565b610ce66040518060400160405280600e81526020016d4e46544d61726b6574506c61636560901b81525060405180604001604052806007815260200166139195135492d560ca1b815250611d57565b8015610cf8576008805461ff00191690555b50565b60046020526000908152604090208054600182015460028301805492939192610d2390612826565b80601f0160208091040260200160405190810160405280929190818152602001828054610d4f90612826565b8015610d9c5780601f10610d7157610100808354040283529160200191610d9c565b820191906000526020600020905b815481529060010190602001808311610d7f57829003601f168201915b505050505090806003018054610db190612826565b80601f0160208091040260200160405190810160405280929190818152602001828054610ddd90612826565b8015610e2a5780601f10610dff57610100808354040283529160200191610e2a565b820191906000526020600020905b815481529060010190602001808311610e0d57829003601f168201915b50505050600483015460058401546006850154600790950154939460ff8084169561010085048216955062010000850490911693630100000090046001600160a01b039081169381169216908b565b6060606e805461064790612826565b610e93338383611dde565b5050565b600260d1541415610eea5760405162461bcd60e51b815260206004820152601f60248201527f5265656e7472616e637947756172643a207265656e7472616e742063616c6c00604482015260640161073f565b600260d1553315801590610f185750610f02816108c6565b6001600160a01b0316336001600160a01b031614155b610f2157600080fd5b60008181526004602081905260409091200154610100900460ff1615610f4657600080fd5b6000610f51826108c6565b9050600060046000848152602001908152602001600020604051806101600160405290816000820154815260200160018201548152602001600282018054610f9890612826565b80601f0160208091040260200160405190810160405280929190818152602001828054610fc490612826565b80156110115780601f10610fe657610100808354040283529160200191611011565b820191906000526020600020905b815481529060010190602001808311610ff457829003601f168201915b5050505050815260200160038201805461102a90612826565b80601f016020809104026020016040519081016040528092919081815260200182805461105690612826565b80156110a35780601f10611078576101008083540402835291602001916110a3565b820191906000526020600020905b81548152906001019060200180831161108657829003601f168201915b5050509183525050600482015460ff808216151560208085019190915261010083048216151560408501526201000083049091161515606084015263010000009091046001600160a01b0390811660808401526005840154811660a084015260068401541660c083015260079092015460e0909101528101519091503410156111635760405162461bcd60e51b81526020600482015260126024820152715072696365203e3d206e667420707269636560701b604482015260640161073f565b61116e82338561195d565b6101008101516040516001600160a01b038216903480156108fc02916000818181858888f193505050501580156111a9573d6000803e3d6000fd5b50610100820180516001600160a01b031661012084015233905261014082018051600191906111d99083906128c8565b905250346020808401918252600086815260048252604090819020855181559251600184015584015180518593926112189260028501929101906122ab565b50606082015180516112349160038401916020909101906122ab565b50608082015160048201805460a085015160c086015160e087015161ffff1990931694151561ff0019169490941761010091151582021762010000600160b81b03191662010000941515949094026301000000600160b81b0319169390931763010000006001600160a01b039283160217909155908301516005830180546001600160a01b03199081169284169290921790556101208401516006840180549092169216919091179055610140909101516007909101555050600160d1555050565b6000828152606f602052604090205482906001600160a01b031661131957600080fd5b611322836108c6565b6001600160a01b0316336001600160a01b03161461133f57600080fd5b506000918252600460208190526040909220918201805461ffff1916600190811790915590910155565b6006602052816000526040600020818154811061138557600080fd5b60009182526020909120600690910201805460018201546002830154600384015460048501546005909501549396506001600160a01b039283169550911692909160ff9091169086565b6113d93383611866565b6113f55760405162461bcd60e51b815260040161073f90612861565b61140184848484611ead565b50505050565b6000818152606f60205260409020546060906001600160a01b03166114865760405162461bcd60e51b815260206004820152602f60248201527f4552433732314d657461646174613a2055524920717565727920666f72206e6f60448201526e3732bc34b9ba32b73a103a37b5b2b760891b606482015260840161073f565b600061149d60408051602081019091526000815290565b905060008151116114bd57604051806020016040528060008152506114e8565b806114c784611ee0565b6040516020016114d8929190612950565b6040516020818303038152906040525b9392505050565b61156d6040518061016001604052806000815260200160008152602001606081526020016060815260200160001515815260200160001515815260200160001515815260200160006001600160a01b0316815260200160006001600160a01b0316815260200160006001600160a01b03168152602001600081525090565b600460008381526020019081526020016000206040518061016001604052908160008201548152602001600182015481526020016002820180546115b090612826565b80601f01602080910402602001604051908101604052809291908181526020018280546115dc90612826565b80156116295780601f106115fe57610100808354040283529160200191611629565b820191906000526020600020905b81548152906001019060200180831161160c57829003601f168201915b5050505050815260200160038201805461164290612826565b80601f016020809104026020016040519081016040528092919081815260200182805461166e90612826565b80156116bb5780601f10611690576101008083540402835291602001916116bb565b820191906000526020600020905b81548152906001019060200180831161169e57829003601f168201915b5050509183525050600482015460ff80821615156020840152610100820481161515604084015262010000820416151560608301526001600160a01b036301000000909104811660808301526005830154811660a083015260068301541660c082015260079091015460e09091015292915050565b609f546001600160a01b0316331461178a5760405162461bcd60e51b815260206004820181905260248201527f4f776e61626c653a2063616c6c6572206973206e6f7420746865206f776e6572604482015260640161073f565b6001600160a01b0381166117ef5760405162461bcd60e51b815260206004820152602660248201527f4f776e61626c653a206e6577206f776e657220697320746865207a65726f206160448201526564647265737360d01b606482015260840161073f565b610cf881611c3f565b600081815260716020526040902080546001600160a01b0319166001600160a01b038416908117909155819061182d826108c6565b6001600160a01b03167f8c5be1e5ebec7d5bd14f71427d1e84f3dd0314c0f7b2291e5b200ac8c7c3b92560405160405180910390a45050565b6000818152606f60205260408120546001600160a01b03166118df5760405162461bcd60e51b815260206004820152602c60248201527f4552433732313a206f70657261746f7220717565727920666f72206e6f6e657860448201526b34b9ba32b73a103a37b5b2b760a11b606482015260840161073f565b60006118ea836108c6565b9050806001600160a01b0316846001600160a01b031614806119255750836001600160a01b031661191a846106ca565b6001600160a01b0316145b8061195557506001600160a01b0380821660009081526072602090815260408083209388168352929052205460ff165b949350505050565b826001600160a01b0316611970826108c6565b6001600160a01b0316146119d85760405162461bcd60e51b815260206004820152602960248201527f4552433732313a207472616e73666572206f6620746f6b656e2074686174206960448201526839903737ba1037bbb760b91b606482015260840161073f565b6001600160a01b038216611a3a5760405162461bcd60e51b8152602060048201526024808201527f4552433732313a207472616e7366657220746f20746865207a65726f206164646044820152637265737360e01b606482015260840161073f565b611a456000826117f8565b6001600160a01b0383166000908152607060205260408120805460019290611a6e90849061297f565b90915550506001600160a01b0382166000908152607060205260408120805460019290611a9c9084906128c8565b90915550506000818152606f602052604080822080546001600160a01b0319166001600160a01b0386811691821790925591518493918716917fddf252ad1be2c89b69c2b068fc378daa952ba7f163c4a11628f55a4df523b3ef91a4505050565b6001600160a01b038216611b535760405162461bcd60e51b815260206004820181905260248201527f4552433732313a206d696e7420746f20746865207a65726f2061646472657373604482015260640161073f565b6000818152606f60205260409020546001600160a01b031615611bb85760405162461bcd60e51b815260206004820152601c60248201527f4552433732313a20746f6b656e20616c7265616479206d696e74656400000000604482015260640161073f565b6001600160a01b0382166000908152607060205260408120805460019290611be19084906128c8565b90915550506000818152606f602052604080822080546001600160a01b0319166001600160a01b03861690811790915590518392907fddf252ad1be2c89b69c2b068fc378daa952ba7f163c4a11628f55a4df523b3ef908290a45050565b609f80546001600160a01b038381166001600160a01b0319831681179093556040519116919082907f8be0079c531659141344cd1fd0a4f28419497f9722a3daafe3b4186f6b6457e090600090a35050565b600854610100900460ff1680611caa575060085460ff16155b611cc65760405162461bcd60e51b815260040161073f90612902565b600854610100900460ff16158015611ce8576008805461ffff19166101011790555b611cf0611fde565b610ce6612048565b600854610100900460ff1680611d11575060085460ff16155b611d2d5760405162461bcd60e51b815260040161073f90612902565b600854610100900460ff16158015611d4f576008805461ffff19166101011790555b610ce66120a8565b600854610100900460ff1680611d70575060085460ff16155b611d8c5760405162461bcd60e51b815260040161073f90612902565b600854610100900460ff16158015611dae576008805461ffff19166101011790555b611db6611fde565b611dbe611fde565b611dc88383612118565b8015610875576008805461ff0019169055505050565b816001600160a01b0316836001600160a01b03161415611e405760405162461bcd60e51b815260206004820152601960248201527f4552433732313a20617070726f766520746f2063616c6c657200000000000000604482015260640161073f565b6001600160a01b03838116600081815260726020908152604080832094871680845294825291829020805460ff191686151590811790915591519182527f17307eab39ab6107e8899845ad3d59bd9653f200f220920489ca2b5937696c31910160405180910390a3505050565b611eb884848461195d565b611ec4848484846121ad565b6114015760405162461bcd60e51b815260040161073f90612996565b606081611f045750506040805180820190915260018152600360fc1b602082015290565b8160005b8115611f2e5780611f18816129e8565b9150611f279050600a83612a19565b9150611f08565b60008167ffffffffffffffff811115611f4957611f4961247d565b6040519080825280601f01601f191660200182016040528015611f73576020820181803683370190505b5090505b841561195557611f8860018361297f565b9150611f95600a86612a2d565b611fa09060306128c8565b60f81b818381518110611fb557611fb5612a41565b60200101906001600160f81b031916908160001a905350611fd7600a86612a19565b9450611f77565b600854610100900460ff1680611ff7575060085460ff16155b6120135760405162461bcd60e51b815260040161073f90612902565b600854610100900460ff16158015610ce6576008805461ffff19166101011790558015610cf8576008805461ff001916905550565b600854610100900460ff1680612061575060085460ff16155b61207d5760405162461bcd60e51b815260040161073f90612902565b600854610100900460ff1615801561209f576008805461ffff19166101011790555b610ce633611c3f565b600854610100900460ff16806120c1575060085460ff16155b6120dd5760405162461bcd60e51b815260040161073f90612902565b600854610100900460ff161580156120ff576008805461ffff19166101011790555b600160d1558015610cf8576008805461ff001916905550565b600854610100900460ff1680612131575060085460ff16155b61214d5760405162461bcd60e51b815260040161073f90612902565b600854610100900460ff1615801561216f576008805461ffff19166101011790555b825161218290606d9060208601906122ab565b50815161219690606e9060208501906122ab565b508015610875576008805461ff0019169055505050565b60006001600160a01b0384163b156122a057604051630a85bd0160e11b81526001600160a01b0385169063150b7a02906121f1903390899088908890600401612a57565b6020604051808303816000875af192505050801561222c575060408051601f3d908101601f1916820190925261222991810190612a94565b60015b612286573d80801561225a576040519150601f19603f3d011682016040523d82523d6000602084013e61225f565b606091505b50805161227e5760405162461bcd60e51b815260040161073f90612996565b805181602001fd5b6001600160e01b031916630a85bd0160e11b149050611955565b506001949350505050565b8280546122b790612826565b90600052602060002090601f0160209004810192826122d9576000855561231f565b82601f106122f257805160ff191683800117855561231f565b8280016001018555821561231f579182015b8281111561231f578251825591602001919060010190612304565b5061232b92915061232f565b5090565b5b8082111561232b5760008155600101612330565b6001600160e01b031981168114610cf857600080fd5b60006020828403121561236c57600080fd5b81356114e881612344565b60005b8381101561239257818101518382015260200161237a565b838111156114015750506000910152565b600081518084526123bb816020860160208601612377565b601f01601f19169290920160200192915050565b6020815260006114e860208301846123a3565b6000602082840312156123f457600080fd5b5035919050565b80356001600160a01b038116811461241257600080fd5b919050565b6000806040838503121561242a57600080fd5b612433836123fb565b946020939093013593505050565b60008060006060848603121561245657600080fd5b61245f846123fb565b925061246d602085016123fb565b9150604084013590509250925092565b634e487b7160e01b600052604160045260246000fd5b600067ffffffffffffffff808411156124ae576124ae61247d565b604051601f8501601f19908116603f011681019082821181831017156124d6576124d661247d565b816040528093508581528686860111156124ef57600080fd5b858560208301376000602087830101525050509392505050565b600082601f83011261251a57600080fd5b6114e883833560208501612493565b60008060006060848603121561253e57600080fd5b833567ffffffffffffffff8082111561255657600080fd5b61256287838801612509565b9450602086013591508082111561257857600080fd5b5061258586828701612509565b925050604084013590509250925092565b6000602082840312156125a857600080fd5b6114e8826123fb565b60006101608d83528c60208401528060408401526125d18184018d6123a3565b905082810360608401526125e5818c6123a3565b9915156080840152505095151560a087015293151560c08601526001600160a01b0392831660e08601529082166101008501521661012083015261014090910152949350505050565b6000806040838503121561264157600080fd5b61264a836123fb565b91506020830135801515811461265f57600080fd5b809150509250929050565b6000806040838503121561267d57600080fd5b50508035926020909101359150565b600080600080608085870312156126a257600080fd5b6126ab856123fb565b93506126b9602086016123fb565b925060408501359150606085013567ffffffffffffffff8111156126dc57600080fd5b8501601f810187136126ed57600080fd5b6126fc87823560208401612493565b91505092959194509250565b600061016082518452602083015160208501526040830151816040860152612732828601826123a3565b9150506060830151848203606086015261274c82826123a3565b9150506080830151612762608086018215159052565b5060a083015161277660a086018215159052565b5060c083015161278a60c086018215159052565b5060e08301516127a560e08601826001600160a01b03169052565b50610100838101516001600160a01b039081169186019190915261012080850151909116908501526101409283015192909301919091525090565b6020815260006114e86020830184612708565b6000806040838503121561280657600080fd5b61280f836123fb565b915061281d602084016123fb565b90509250929050565b600181811c9082168061283a57607f821691505b6020821081141561285b57634e487b7160e01b600052602260045260246000fd5b50919050565b60208082526031908201527f4552433732313a207472616e736665722063616c6c6572206973206e6f74206f6040820152701ddb995c881b9bdc88185c1c1c9bdd9959607a1b606082015260800190565b634e487b7160e01b600052601160045260246000fd5b600082198211156128db576128db6128b2565b500190565b6040815260006128f36040830185612708565b90508260208301529392505050565b6020808252602e908201527f496e697469616c697a61626c653a20636f6e747261637420697320616c72656160408201526d191e481a5b9a5d1a585b1a5e995960921b606082015260800190565b60008351612962818460208801612377565b835190830190612976818360208801612377565b01949350505050565b600082821015612991576129916128b2565b500390565b60208082526032908201527f4552433732313a207472616e7366657220746f206e6f6e20455243373231526560408201527131b2b4bb32b91034b6b83632b6b2b73a32b960711b606082015260800190565b60006000198214156129fc576129fc6128b2565b5060010190565b634e487b7160e01b600052601260045260246000fd5b600082612a2857612a28612a03565b500490565b600082612a3c57612a3c612a03565b500690565b634e487b7160e01b600052603260045260246000fd5b6001600160a01b0385811682528416602082015260408101839052608060608201819052600090612a8a908301846123a3565b9695505050505050565b600060208284031215612aa657600080fd5b81516114e88161234456fea26469706673582212209324b7b8251b66e5ae4ecf618512a776de2489ed4d5e2c7fcf2b6d98e559da8b64736f6c634300080a0033",
    "sourcePath": "c:/Programming/Blockchain Programs/Intern Works/Marketplace Maker/Modular-Contract/Modular-contract/contracts/NFTMarketplace.sol",
    "compiler": {
        "name": "solc",
        "version": "0.8.10+commit.fc410830"
    },
    "functionHashes": {
        "Bids(uint256,uint256)": "a7f323da",
        "BuyNFT(uint256)": "a37365e0",
        "NFTImplementation()": "00d96d02",
        "SellNFT(uint256,uint256)": "a632f800",
        "_tokenIds()": "aa46a400",
        "_tokenMeta(uint256)": "8e57ff16",
        "admin()": "f851a440",
        "approve(address,uint256)": "095ea7b3",
        "balanceOf(address)": "70a08231",
        "fetchNft(uint256)": "e43f0490",
        "getApproved(uint256)": "081812fc",
        "getContractBalance()": "6f9fb98a",
        "initialize()": "8129fc1c",
        "isApprovedForAll(address,address)": "e985e9c5",
        "mintNFT(string,string,uint256)": "64b30907",
        "name()": "06fdde03",
        "owner()": "8da5cb5b",
        "ownerOf(uint256)": "6352211e",
        "pendingAdmin()": "26782247",
        "pendingNFTImplementation()": "98062bbf",
        "renounceOwnership()": "715018a6",
        "safeTransferFrom(address,address,uint256)": "42842e0e",
        "safeTransferFrom(address,address,uint256,bytes)": "b88d4fde",
        "setApprovalForAll(address,bool)": "a22cb465",
        "supportsInterface(bytes4)": "01ffc9a7",
        "symbol()": "95d89b41",
        "tokenURI(uint256)": "c87b56dd",
        "transferFrom(address,address,uint256)": "23b872dd",
        "transferOwnership(address)": "f2fde38b"
    },
    "gasEstimates": {
        "creation": {
            "codeDepositCost": "2196600",
            "executionCost": "2346",
            "totalCost": "2198946"
        },
        "external": {
            "Bids(uint256,uint256)": "15462",
            "BuyNFT(uint256)": "infinite",
            "NFTImplementation()": "2373",
            "SellNFT(uint256,uint256)": "51286",
            "_tokenIds()": "2362",
            "_tokenMeta(uint256)": "infinite",
            "admin()": "2436",
            "approve(address,uint256)": "infinite",
            "balanceOf(address)": "2656",
            "fetchNft(uint256)": "infinite",
            "getApproved(uint256)": "4727",
            "getContractBalance()": "239",
            "initialize()": "infinite",
            "isApprovedForAll(address,address)": "infinite",
            "mintNFT(string,string,uint256)": "infinite",
            "name()": "infinite",
            "owner()": "2366",
            "ownerOf(uint256)": "2624",
            "pendingAdmin()": "2438",
            "pendingNFTImplementation()": "2371",
            "renounceOwnership()": "28206",
            "safeTransferFrom(address,address,uint256)": "infinite",
            "safeTransferFrom(address,address,uint256,bytes)": "infinite",
            "setApprovalForAll(address,bool)": "26753",
            "supportsInterface(bytes4)": "590",
            "symbol()": "infinite",
            "tokenURI(uint256)": "infinite",
            "transferFrom(address,address,uint256)": "infinite",
            "transferOwnership(address)": "28400"
        }
    }
}